:020000040000FA
:040000001FEF00F0FE
:100008005382F0A20AEF00F00CEF00F00FEF00F0BF
:100018007AEC0BF0F092F2A414EF00F016EF00F077
:100028001DEF00F0F294E10ED76E7A0ED66E514AAB
:10003800522A5392110028EF0BF00450800B0D6EDA
:10004800045004240F6E03AE2CEF00F02EEF00F0E6
:100058002FEF00F00F800F50D8B435EF00F037EFD6
:1000680000F04CEF00F00F28D8A43DEF00F03FEF70
:1000780000F047EF00F0000E016E000E026E000E59
:10008800036E000E046E038E000E046E54EF00F033
:10009800000E016E000E026E000E036E000E046E5E
:1000A8000850800B0E6E0D500E18D8B45EEF00F09D
:1000B80060EF00F061EF00F00D8C085008240E6E20
:1000C80007AE69EF00F06BEF00F06CEF00F00E8008
:1000D8000E50D8B472EF00F074EF00F089EF00F022
:1000E8000E28D8A47AEF00F07CEF00F084EF00F03F
:1000F800000E056E000E066E000E076E000E086EEE
:10010800078E000E086E91EF00F0000E056E000ECF
:10011800066E000E076E000E086E0F500E5CD8B00B
:1001280098EF00F09AEF00F0C1EF00F00DAC9FEFF0
:1001380000F0A1EF00F0A3EF00F0800E0D1A0FC041
:1001480010F00EC00FF010C00EF001C010F005C086
:1001580001F010C005F002C010F006C002F010C097
:1001680006F003C010F007C003F010C007F004C089
:1001780010F008C004F010C008F0000E106E0F5008
:100188000EC009F00A6A095E000E0A5A0ABED6EFC6
:1001980000F00A5009E11A0E095CD8A0D6EF00F069
:1001A800D8EF00F00FEF01F0015002100310041017
:1001B800D8A4E1EF00F0E4EF00F0010EE5EF00F065
:1001C800000E106E000E016E000E026E000E036E21
:1001D800000E046E0EC00FF018EF01F010A0F7EF3C
:1001E80000F0F9EF00F0FFEF00F0D89010300109AF
:1001F800106E01EF01F0D890103201A006EF01F067
:1002080008EF01F009EF01F0108E043404320332D4
:10021800023201320F2A0E500F5CD8A016EF01F0FF
:1002280018EF01F0F2EF00F00DBC1DEF01F01FEF29
:1002380001F05FEF01F00F50D8A425EF01F027EF90
:1002480001F031EF01F0000E016E000E026E000E9B
:10025800036E000E046E80EF02F005500126065072
:100268000222075003220850042204A03EEF01F0A6
:1002780040EF01F0ECEF01F010A045EF01F047EF7F
:1002880001F04DEF01F0D89010300109106E4FEFDA
:1002980001F0D890103201A054EF01F056EF01F0B0
:1002A80057EF01F0108E0434043203320232013267
:1002B8000F2AECEF01F00550015C06500258075078
:1002C80003580450800A096E0850800A0958D8B0AB
:1002D80070EF01F072EF01F09DEF01F00150055C45
:1002E800096E025006580A6E035007580B6E0450E8
:1002F80008580C6EFF0E0924016EFF0E0A20026ECC
:10030800FF0E0B20036EFF0E0C20046E800E0D1ADC
:10031800106C1050D8A493EF01F095EF01F0A5EF01
:1003280001F0010E0126000E022203220422A5EF8D
:1003380001F00550015E0650025A0750035A085052
:10034800045A0150021003100410D8A4AEEF01F0B3
:10035800B0EF01F0E5EF01F01050D8A4B6EF01F0CE
:10036800B8EF01F0E5EF01F0000E016E000E026E2D
:10037800000E036E000E046E80EF02F0D890013676
:1003880002360336043610AECCEF01F0CEEF01F0A2
:10039800CFEF01F0018010A0D4EF01F0D6EF01F00B
:1003A800DAEF01F0D8801036DCEF01F0D890103683
:1003B8000F50D8B4E2EF01F0E4EF01F0E5EF01F0FF
:1003C8000F0603AEEAEF01F0ECEF01F0C2EF01F027
:1003D800000E0E6E10AEF3EF01F0F5EF01F00DEF29
:1003E80002F010C009F07F0E0916D8B4FEEF01F034
:1003F80000EF02F004EF02F0010E0E6E0DEF02F0B6
:1004080001A009EF02F00BEF02F00DEF02F000EF90
:1004180002F00E50D8B413EF02F015EF02F040EFDF
:1004280002F0010E0126000E02220322042204A07B
:1004380020EF02F022EF02F040EF02F001C009F0D5
:1004480002C00AF003C00BF004C00CF00C340C32EC
:100458000B320A32093209C001F00AC002F00BC09F
:1004680003F00CC004F00F28D8B43DEF02F03FEFC2
:1004780002F040EF02F00F2A0F28D8B446EF02F03E
:1004880048EF02F050EF02F00F50D8A44EEF02F000
:1004980050EF02F062EF02F0000E016E000E026EE5
:1004A800000E036E000E046E0F50D8A45EEF02F02B
:1004B80060EF02F062EF02F0000E0D6E0FA067EF22
:1004C80002F069EF02F06CEF02F0038E6DEF02F0BC
:1004D800039ED8900F30046E0DAE75EF02F077EFE3
:1004E80002F078EF02F0048E01C001F002C002F0C1
:1004F80003C003F004C004F012000450800B0D6E1A
:1005080004500424136E03AE8CEF02F08EEF02F059
:100518008FEF02F013801350D8B495EF02F097EFE5
:1005280002F0AAEF02F01328D8A49DEF02F09FEF83
:1005380002F0A7EF02F0000E016E000E026E000E30
:10054800036E000E046E038EB2EF02F0000E016E11
:10055800000E026E000E036E000E046E0850800B33
:100568000D1A08500824126E07AEBDEF02F0BFEF57
:1005780002F0C0EF02F012801250D8B4C6EF02F0B9
:10058800C8EF02F0DBEF02F01228D8A4CEEF02F099
:10059800D0EF02F0D8EF02F0000E056E000E066EE6
:1005A800000E076E000E086E078EE3EF02F0000ED5
:1005B800056E000E066E000E076E000E086E1250D5
:1005C800D8B4E9EF02F0EBEF02F0F3EF02F01350CA
:1005D800D8A4F1EF02F0F3EF02F0FDEF02F0000E05
:1005E800016E000E026E000E036E000E046E95EF93
:1005F80004F007500102F3CF18F0F4CF19F01850A7
:100608000E6E0F6A106A116A1950146E156A166A0E
:10061800176A06500202F3CF18F0F4CF19F01850F9
:100628000E26000E0F221022112219501426000E39
:1006380015221622172205500302F3CF18F0F4CF23
:1006480019F018500E26000E0F22102211221950F0
:100658001426000E15221622172210C011F00FC002
:1006680010F00EC00FF00E6A05500202F3CF18F01A
:10067800F4CF19F018500E2619500F22000E102230
:10068800000E112206500102F3CF18F0F4CF19F032
:1006980018500E2619500F22000E1022000E11229B
:1006A80010C011F00FC010F00EC00FF00E6A055008
:1006B8000102F3CF18F0F4CF19F018500E26195094
:1006C8000F22000E1022000E112207500202F3CF53
:1006D80018F0F4CF19F01850142619501522000EEE
:1006E8001622000E172206500302F3CF18F0F4CF9B
:1006F80019F01850142619501522000E1622000E53
:10070800172207500302F3CF18F0F4CF19F018504E
:10071800096E19500A6E0B6A0C6A0BC00CF00AC0FD
:100728000BF009C00AF0096A095014260A5015226C
:100738000B5016220C5017220EC009F00FC00AF0F9
:1007480010C00BF011C00CF0190EB0EF03F0D890E8
:100758000C320B320A320932E82EABEF03F00950A3
:1007680014260A5015220B5016220C50172210C0BE
:1007780011F00FC010F00EC00FF00E6A125013C027
:1007880009F00A6A0926000E0A22820E0924186E48
:10079800FF0E0A20196EE6EF03F0D89014361536CE
:1007A8001636173611AEDBEF03F0DDEF03F0DEEFA0
:1007B80003F01480D8900E360F361036113618060E
:1007C800D8A0190616AEEBEF03F0EDEF03F0D1EF6A
:1007D80003F0000E126E11AEF4EF03F0F6EF03F023
:1007E8001AEF04F0FF0E0E14096EFF0E0F140A6EB6
:1007F800FF0E10140B6E7F0E11140C6E09500A10A8
:100808000B100C10D8B40BEF04F00DEF04F011EF3F
:1008180004F0010E126E1AEF04F014A016EF04F0A3
:1008280018EF04F01AEF04F00DEF04F01250D8B4EA
:1008380020EF04F022EF04F046EF04F0010E142636
:10084800000E15221622172217A02DEF04F02FEF05
:1008580004F046EF04F014C009F015C00AF016C001
:100868000BF017C00CF00C340C320B320A32093280
:1008780009C014F00AC015F00BC016F00CC017F030
:10088800184A192A19BE51EF04F0195008E118281E
:10089800D8A051EF04F053EF04F05DEF04F0000E20
:1008A800146E000E156E800E166E7F0E176E8BEF8F
:1008B80004F019BE6AEF04F0195006E11804D8B024
:1008C80068EF04F06AEF04F076EF04F0000E146E9F
:1008D800000E156E000E166E000E176E000E0D6ED1
:1008E8008BEF04F018C013F0FF0E1416FF0E151648
:1008F8007F0E1616000E171613A085EF04F087EF6B
:1009080004F088EF04F0168ED8901330176E0D504F
:10091800171214C001F015C002F016C003F017C07A
:1009280004F012001D50800B2A6E1D501D24316EDC
:100938001CAEA1EF04F0A3EF04F0A4EF04F03180A3
:100948003150D8B4AAEF04F0ACEF04F0C1EF04F0D2
:100958003128D8A4B2EF04F0B4EF04F0BCEF04F0EF
:10096800000E1A6E000E1B6E000E1C6E000E1D6E21
:100978001C8E000E1D6EC9EF04F0000E1A6E000EDC
:100988001B6E000E1C6E000E1D6E2150800B2A1A65
:1009980021502124326E20AED4EF04F0D6EF04F0BB
:1009A800D7EF04F032803250D8B4DDEF04F0DFEF37
:1009B80004F0F4EF04F03228D8A4E5EF04F0E7EFF0
:1009C80004F0EFEF04F0000E1E6E000E1F6E000E16
:1009D800206E000E216E208E000E216EFCEF04F0BA
:1009E800000E1E6E000E1F6E000E206E000E216E91
:1009F8001E501F1020102110D8A405EF05F007EF96
:100A080005F01FEF05F0000E1A6E000E1B6E000EAB
:100A18001C6E000E1D6E800E1C127F0E1D122A50B9
:100A28001D121AC01AF01BC01BF01CC01CF01DC000
:100A38001DF062EF06F03150D8A425EF05F027EF3E
:100A480005F031EF05F0000E1A6E000E1B6E000E59
:100A58001C6E000E1D6E62EF06F0325031C022F09F
:100A6800236A225E000E235A7F0E22242B6E000E6C
:100A780023202C6E1AC026F01BC027F01CC028F0BB
:100A88001DC029F0000E1A6E000E1B6E000E1C6EA3
:100A9800000E1D6E000E2D6E000E2E6E000E2F6EB7
:100AA800000E306E000E326E92EF05F03250D8B460
:100AB80060EF05F062EF05F079EF05F0D890263683
:100AC800273628362936D8901A361B361C361D3656
:100AD80030AE71EF05F073EF05F074EF05F01A8092
:100AE800D8902D362E362F3630361E50265C1F50A5
:100AF80027582050285821502958D8A086EF05F0AB
:100B080088EF05F091EF05F0308C1E50265E1F50DF
:100B1800275A2050285A2150295A322A190E32644D
:100B280098EF05F09AEF05F05AEF05F026502710D8
:100B380028102910D8B4A3EF05F0A5EF05F0BDEFF4
:100B480005F02D80BDEF05F0D8901A361B361C36FF
:100B58001D3630AEB2EF05F0B4EF05F0B5EF05F095
:100B68001A80D8902D362E362F3630362B06D8A040
:100B78002C061CAEC2EF05F0C4EF05F0A8EF05F097
:100B8800000E326E30AECBEF05F0CDEF05F0F1EF91
:100B980005F0FF0E2D14226EFF0E2E14236EFF0E8D
:100BA8002F14246E7F0E3014256E2250231024102B
:100BB8002510D8B4E2EF05F0E4EF05F0E8EF05F012
:100BC800010E326EF1EF05F01AA0EDEF05F0EFEF30
:100BD80005F0F1EF05F0E4EF05F03250D8B4F7EF87
:100BE80005F0F9EF05F01DEF06F0010E1A26000ECC
:100BF8001B221C221D221DA004EF06F006EF06F0A2
:100C08001DEF06F01AC022F01BC023F01CC024F010
:100C18001DC025F02534253224322332223222C049
:100C28001AF023C01BF024C01CF025C01DF02B4A6D
:100C38002C2A2CBE28EF06F02C5008E12B28D8A02F
:100C480028EF06F02AEF06F035EF06F0000E2C6EBE
:100C58002B68000E1A6E000E1B6E000E1C6E000E26
:100C68001D6E2CBE42EF06F02C5006E12B04D8B0C6
:100C780040EF06F042EF06F050EF06F0000E2C6E43
:100C8800000E2B6E000E1A6E000E1B6E000E1C6EF0
:100C9800000E1D6E000E2A6E2BC031F031A057EFEA
:100CA80006F059EF06F05CEF06F01C8E5DEF06F0DB
:100CB8001C9ED89031301D6E13EF05F01200E8EC41
:100CC8000AF06AEC0BF053EC0BF043EC0BF04F50CE
:100CD800515C336E50505258346E34BE7DEF06F07E
:100CE800345009E1020E335CD8A07DEF06F07FEFA7
:100CF80006F096EF06F051C04FF052C050F081B6A2
:100D080088EF06F08BEF06F0010E8CEF06F0000E70
:100D1800FF0A336E33463346334681503318F70B98
:100D28003318816E000EA9EC0AF001C00AF002C067
:100D38000BF00C6A0D6A000E7AEC07F00AC035F069
:100D48000BC036F00CC037F00DC038F0000E056E41
:100D5800000E066EA00E076E400E086E35C001F03C
:100D680036C002F037C003F038C004F081EC02F05E
:100D780001C01AF002C01BF003C01CF004C01DF033
:100D8800000E1E6E000E1F6E800E206E440E216E29
:100D980096EC04F01AC035F01BC036F01CC037F0D2
:100DA8001DC038F035C001F036C002F037C003F07E
:100DB80038C004F0330E056E330E066E530E076E00
:100DC800C00E086E21EC00F001C035F002C036F00C
:100DD80003C037F004C038F0000E056E000E066E32
:100DE800160E076E430E086E35C001F036C002F0CD
:100DF80037C003F038C004F081EC02F001C01AF0EB
:100E080002C01BF003C01CF004C01DF0000E1E6ED3
:100E1800000E1F6EC00E206E3F0E216E96EC04F081
:100E28001AC035F01BC036F01CC037F01DC038F0B2
:100E380035C001F036C002F037C003F038C004F006
:100E4800EAEC08F001C013F002C014F054EC08F00A
:100E5800000E016E000E026E700E036E420E046EDE
:100E680035C005F036C006F037C007F038C008F0C6
:100E78006DEC09F0D8B043EF07F045EF07F048EF05
:100E880007F077EC0BF0818835C001F036C002F02E
:100E980037C003F038C004F0000E056E000E066E71
:100EA800700E076E420E086E6DEC09F0D8B05FEF59
:100EB80007F061EF07F062EF07F0819881A067EF14
:100EC80007F069EF07F06DEF07F074EC0BF06BEFCC
:100ED80006F081A272EF07F074EF07F06BEF06F0EF
:100EE80071EC0BF06BEF06F01FEF00F0126E125072
:100EF800D8B481EF07F083EF07F0A5EF07F00DBE38
:100F08008AEF07F088EF07F0A5EF07F00AC00EF0A8
:100F18000BC00FF00CC010F00DC011F00E1E0F1E0C
:100F2800101E111E0E2A000E0F22102211220EC0B2
:100F380014F00FC015F010C016F011C017F0ADEF87
:100F480007F00AC014F00BC015F00CC016F00DC065
:100F580017F00A500B100C100D10D8A4B6EF07F0BC
:100F6800B8EF07F0C2EF07F0000E0A6E000E0B6E26
:100F7800000E0C6E000E0D6E53EF08F0960E136EF9
:100F8800CCEF07F0132AD8901732163215321432E4
:100F9800000E14140E6E000E15140F6E000E1614AB
:100FA800106EFE0E1714116E0E500F101010111047
:100FB800D8A4E1EF07F0E3EF07F0C6EF07F0F1EF91
:100FC80007F0132A010E1426000E152216221722E6
:100FD800D8901732163215321432000E14140E6ED1
:100FE800000E15140F6E000E1614106EFF0E171457
:100FF800116E0E500F1010101110D8A406EF08F043
:1010080008EF08F0E5EF07F010EF08F01306D890A6
:10101800143615361636173616BE15EF08F017EFC4
:1010280008F01FEF08F0020E13601DEF08F01FEF25
:1010380008F00AEF08F013B024EF08F026EF08F0E4
:1010480027EF08F0169ED890133213C00EF00F6ADF
:10105800106A116A0EC011F0106A0F6A0E6A0E50FB
:1010680014120F5015121050161211501712125058
:10107800D8B441EF08F043EF08F04BEF08F00DBE8D
:101088004AEF08F048EF08F04BEF08F0178E14C04D
:101098000AF015C00BF016C00CF017C00DF01200C6
:1010A800000E176EC3EF08F0838483868388839AC3
:1010B800630E826E270E156EF50EE82EFED7152EDE
:1010C800FCD700F0E0EF08F0838483868398838A56
:1010D80013C001F014C002F008EC0BF001C00DF0D1
:1010E80002C00EF0000E106E0A0E0F6E51EC0AF0E0
:1010F800D8900D360E36390E0D24D96E000E0E20FE
:10110800DA6EDF50826E5EEF08F083848396838800
:10111800838A000E086E0A0E076E13C001F014C011
:1011280002F008EC0BF001C005F002C006F0EFEC8D
:1011380009F005C00DF006C00EF0000E106E0A0E84
:101148000F6E51EC0AF0D8900D360E36390E0D247C
:10115800D96E000E0E20DA6EDF50826E5EEF08F058
:1011680014BEBBEF08F0B9EF08F05EEF08F0839407
:1011780083868388838A400E826E5EEF08F017505C
:10118800156E166A1650000AD8B4CDEF08F0E0EFD5
:1011980008F01550000AD8B458EF08F0010AD8B47E
:1011A80068EF08F0030AD8B489EF08F0010AD8B448
:1011B800B4EF08F0E0EF08F0172A030E1764E7EF22
:1011C80008F0E9EF08F0C3EF08F012000334043424
:1011D8000A6E0A50D8A4F3EF08F0F5EF08F0FFEF15
:1011E80008F0000E016E000E026E000E036E000E77
:1011F800046E6CEF09F001C005F002C006F003C0F0
:1012080007F004C008F0200E0FEF09F0D89008325C
:10121800073206320532E82E0AEF09F00550096E4A
:10122800038EFF0E0116FF0E0216FF0E0316000EA8
:101238000416960E0A5E0ABE26EF09F024EF09F09E
:101248003CEF09F00A50800A970FD8B02EEF09F04A
:1012580030EF09F032EF09F0F5EF08F0D8900432DA
:101268000332023201320A3E32EF09F054EF09F03C
:101278001F0E0A6442EF09F044EF09F04CEF09F041
:10128800F5EF08F0D89001360236033604360A0620
:101298000A50D8A452EF09F054EF09F046EF09F0CC
:1012A8000950D8B45AEF09F05CEF09F064EF09F07F
:1012B800041E031E021E016C000E022203220422D9
:1012C80001C001F002C002F003C003F004C004F042
:1012D8001200000E0114096E000E02140A6E800E30
:1012E80003140B6E7F0E04140C6E09500A100B10B9
:1012F8000C10D8A482EF09F084EF09F08CEF09F004
:10130800000E016E000E026E000E036E000E046EDB
:10131800000E0514096E000E06140A6E800E0714DE
:101328000B6E7F0E08140C6E09500A100B100C106F
:10133800D8A4A1EF09F0A3EF09F0ABEF09F0000E74
:10134800056E000E066E000E076E000E086E04AEE7
:10135800B0EF09F0B2EF09F0BBEF09F0016C021E23
:10136800D8B0022A031ED8B0032A800E045608AE4D
:10137800C0EF09F0C2EF09F0CBEF09F0056C061ECB
:10138800D8B0062A071ED8B0072A800E0856000EC5
:10139800011A000E021A000E031A800E041A000E1B
:1013A800051A000E061A000E071A800E081A0550B4
:1013B800015C065002580750035808500458D8B02A
:1013C800E8EF09F0EAEF09F0EDEF09F0D890EEEF59
:1013D80009F0D8801200000E0A6E08BEF8EF09F076
:1013E800F6EF09F0FEEF09F0076C081ED8B0082ADE
:1013F800010E0A6E06BE05EF0AF003EF0AF00BEFC6
:101408000AF0056C061ED8B0062A010E0A1A000E4C
:101418000C6E000E0B6E07500810D8B416EF0AF0C9
:1014280018EF0AF040EF0AF0010E096E20EF0AF0FB
:10143800D89007360836092A08AE25EF0AF027EFB4
:101448000AF01CEF0AF0D8900B360C360750055CF2
:1014580008500658D8A033EF0AF035EF0AF03AEFF3
:101468000AF00750055E0850065A0B80D8900832DB
:101478000732092E27EF0AF00A50D8B446EF0AF0CF
:1014880048EF0AF04CEF0AF00B6C0C1ED8B00C2A8F
:101498000BC005F00CC006F01200000E126E0EBE56
:1014A8005AEF0AF058EF0AF060EF0AF00D6C0E1EC2
:1014B800D8B00E2A010E126E10BE67EF0AF065EF63
:1014C8000AF06BEF0AF00F6C101ED8B0102A0F50FC
:1014D8001010D8B472EF0AF074EF0AF098EF0AF01F
:1014E800010E116E7CEF0AF0D8900F361036112AD3
:1014F80010AE81EF0AF083EF0AF078EF0AF00F5090
:101508000D5C10500E58D8A08CEF0AF08EEF0AF040
:1015180092EF0AF00F500D5E10500E5AD89010320C
:101528000F32112E83EF0AF01250D8B49EEF0AF052
:10153800A0EF0AF0A4EF0AF00D6C0E1ED8B00E2A28
:101548000DC00DF00EC00EF01200096EB6EF0AF0D5
:10155800830EC216CBEF0AF0C250830B0409C26E89
:10156800CBEF0AF00950036E046A0450000AD8B49D
:10157800C0EF0AF0CBEF0AF00350000AD8B4ACEF82
:101588000AF0010AD8B4B0EF0AF0CBEF0AF0C28231
:10159800E0EF0AF0C450046E036AC350056E066A91
:1015A80003500510076E04500610086E07C001F0BE
:1015B80008C002F0E7EF0AF0C2B2E5EF0AF0E7EF81
:1015C8000AF0CEEF0AF012009380938293849396E8
:1015D80093989280000E956E000E946E000E0F0187
:1015E8003A6F000E3B6F838483868388838A3881B1
:1015F80039913993399539973999D3508F0B6009B7
:10160800D36EFC0ED316120002BE15EF0BF002507B
:1016180006E10104D8B013EF0BF015EF0BF023EF40
:101628000BF001C003F002C004F0031E041E034ABD
:10163800042A03C001F004C002F027EF0BF001C038
:1016480001F002C002F01200BE0EF66E160EF76E22
:10165800000EF86E00EE39F010EE16F00900F5CF26
:10166800EEFFE550E150FAE1526A516A506A4F6A5A
:1016780053905392000EF86E000163EF06F0C2809B
:10168800C18EF30EC116FC0EC116C08EC050F80BE9
:101698000109C06EC050C70B1009C06E1200D59C5E
:1016A800D59AD598D596D580D582D584D59EF28AF7
:1016B800F294D58E12003F0006005B004F006600D2
:1016C8006D007C0007007F006F000100F28EF28C35
:1016D800D09EF188F088F0921200839083821200E5
:1016E8008380839212008390839212008390839266
:0216F8001200DE
:020000040020DA
:08000000FFFFFFFFFFFFFFFF00
:020000040030CA
:0E000000FF281F3CFF3F85FF0FC00FE00F40A1
:00000001FF
